{
  "transactions": [
    {
      "hash": "0x45a390807beca03e113fa56837e335bd3b12a5410401988de913e4d501a5ae46",
      "transactionType": "CALL",
      "contractName": null,
      "contractAddress": "0x3ed0227fe58a60b93234d9ffae31078f84d8ec3f",
      "function": "mintNFT(string)",
      "arguments": [
        "ipfs://bafybeig37ioir76s7mg5oobetncojcm3c3hxasyd4rvid4jqhy4gkaheg4/?filename=0-PUG.json"
      ],
      "transaction": {
        "from": "0x5dd4fc908cf99e6d05e81e43f4e1de1b2345f9e3",
        "to": "0x3ed0227fe58a60b93234d9ffae31078f84d8ec3f",
        "gas": "0x3dc2c",
        "value": "0x0",
        "input": "0xfb37e88300000000000000000000000000000000000000000000000000000000000000200000000000000000000000000000000000000000000000000000000000000057697066733a2f2f62616679626569673337696f6972373673376d67356f6f6265746e636f6a636d3363336878617379643472766964346a71687934676b61686567342f3f66696c656e616d653d302d5055472e6a736f6e000000000000000000",
        "nonce": "0x1",
        "chainId": "0xaa36a7"
      },
      "additionalContracts": [],
      "isFixedGasLimit": false
    }
  ],
  "receipts": [
    {
      "status": "0x1",
      "cumulativeGasUsed": "0xe443e3",
      "logs": [
        {
          "address": "0x3ed0227fe58a60b93234d9ffae31078f84d8ec3f",
          "topics": [
            "0xddf252ad1be2c89b69c2b068fc378daa952ba7f163c4a11628f55a4df523b3ef",
            "0x0000000000000000000000000000000000000000000000000000000000000000",
            "0x0000000000000000000000005dd4fc908cf99e6d05e81e43f4e1de1b2345f9e3",
            "0x0000000000000000000000000000000000000000000000000000000000000000"
          ],
          "data": "0x",
          "blockHash": "0x66d668646be73216a78b64e6a995ea7b6e657db9ae40cd5f499175375ef002c2",
          "blockNumber": "0x8e04b2",
          "blockTimestamp": "0x68dad658",
          "transactionHash": "0x45a390807beca03e113fa56837e335bd3b12a5410401988de913e4d501a5ae46",
          "transactionIndex": "0x51",
          "logIndex": "0x6c",
          "removed": false
        }
      ],
      "logsBloom": "0x00000000000000000000000000000004000000000000000000000000000000000000000000000000000000000000000000000000000000000000000000000010000000010000000000000008000000000000000000000000000000000000000000000000020000000000000000000800000000000000000000000010000000000000000000000000000000000000000000000800000000000000000000000000000000000000000000000000000000000000004000000000000000000000000000000002000000000000000000000000000000000000000000000000000020000000400000000000000000000000000000000000000000000000000000000000",
      "type": "0x2",
      "transactionHash": "0x45a390807beca03e113fa56837e335bd3b12a5410401988de913e4d501a5ae46",
      "transactionIndex": "0x51",
      "blockHash": "0x66d668646be73216a78b64e6a995ea7b6e657db9ae40cd5f499175375ef002c2",
      "blockNumber": "0x8e04b2",
      "gasUsed": "0x2cb6c",
      "effectiveGasPrice": "0xf521c",
      "from": "0x5dd4fc908cf99e6d05e81e43f4e1de1b2345f9e3",
      "to": "0x3ed0227fe58a60b93234d9ffae31078f84d8ec3f",
      "contractAddress": null
    }
  ],
  "libraries": [],
  "pending": [],
  "returns": {},
  "timestamp": 1759172185487,
  "chain": 11155111,
  "commit": null
}